:1000000000800020B9040000C50D0000C50D0000EF
:10001000C50D0000C50D0000C50D0000C50D000098
:10002000C50D0000C50D0000C50D0000C50D000088
:10003000C50D0000C50D0000C50D0000C50D000078
:10004000C50D0000C50D0000C50D0000C50D000068
:10005000C50D0000C50D0000C50D0000C50D000058
:10006000C50D0000C50D0000C50D0000C50D000048
:10007000C50D0000C50D0000C50D0000C50D000038
:10008000C50D0000C50D0000C50D0000C50D000028
:10009000C50D0000C50D0000C50D0000C50D000018
:1000A000C50D0000C50D0000C50D0000C50D000008
:1000B000C50D0000C50D0000C50D0000C50D0000F8
:1000C00080B51448144B21E05C689968DD688C4267
:1000D0000CD0002205E0A6180832D6E9008941E9D3
:1000E00002898C460831AA42F5D101E004EB050CE7
:1000F0001C696146002204E008320026002741E91D
:1001000002670831A242F7D1143301380028DBD14D
:1001100000F040FE010000006C0E000048F21813D1
:10012000C1F6FF731A780AB901201870704700BF32
:1001300048F20010C1F6FF7008B503682BB140F219
:100140000003C0F2000303B1984708BD80B500AFBB
:100150004FF0060000F01CF94FF4FA7000F00CFAB2
:100160004FF0FF0000F014F94FF0640000F004FAC3
:100170004FF0100000F00CF94FF4FA7000F0FCF9A9
:100180004FF0FF0000F004F94FF0640000F0F4F9C4
:100190004FF0010000F0FCF84FF4FA7000F0ECF9B9
:1001A0004FF0FF0000F0F4F84FF0640000F0E4F9C5
:1001B0004FF0010000F0ECF84FF4FA7000F0DCF9B9
:1001C0004FF0FF0000F0E4F84FF0640000F0D4F9C5
:1001D0004FF0050000F0DCF84FF4FA7000F0CCF9B5
:1001E0004FF0FF0000F0D4F84FF0640000F0C4F9C5
:1001F0004FF0FF0000F0CCF84FF4FA7000F0BCF9BB
:100200004FF0FF0000F0C4F84FF0640000F0B4F9C4
:100210004FF0010000F0BCF84FF4FA7000F0ACF9B8
:100220004FF0FF0000F0B4F84FF0640000F0A4F9C4
:100230004FF0050000F0ACF84FF4FA7000F09CF9B4
:100240004FF0FF0000F0A4F84FF0640000F094F9C4
:100250004FF0FF0000F09CF84FF4FA7000F08CF9BA
:100260004FF0FF0000F094F84FF0640000F084F9C4
:100270004FF0630000F03EF84FF4FA7000F07CF9A4
:100280004FF0FF0000F084F84FF0640000F074F9C4
:100290004FF0000000F07CF84FF4FA7000F06CF9B9
:1002A0004FF0FF0000F074F84FF0640000F064F9C4
:1002B0004FF0000000F06CF84FF4FA7000F05CF9B9
:1002C0004FF0FF0000F064F84FF0640000F054F9C4
:1002D0004FF0E30000F00EF84FF4FA7000F04CF924
:1002E0004FF0FF0000F054F84FF4FA7000F044F9BA
:1002F0002EE700BF80B582B000AF78607B684FEA20
:10030000E313DBB203F00103184600F059F97B68F0
:100310004FEAA313DBB203F00103184600F072F9B1
:100320007B684FEA6313DBB203F00103184600F069
:100330008BF97B684FEA2313DBB203F00103184605
:1003400000F0A4F97B684FEAE303DBB203F001039A
:10035000184600F0BDF97B684FEAA303DBB203F057
:100360000103184600F0D6F97B684FEA6303DBB25D
:1003700003F00103184600F0EFF97B68DBB203F0ED
:100380000103184600F008FA07F10807BD4680BDD2
:1003900080B582B000AF78607B68002B04D14FF04D
:1003A0000300FFF7A7FF83E07B68012B04D14FF028
:1003B0009F00FFF79FFF7BE07B68022B04D14FF08B
:1003C0002500FFF797FF73E07B68032B04D14FF004
:1003D0000D00FFF78FFF6BE07B68042B04D14FF01B
:1003E0009900FFF787FF63E07B68052B04D14FF08E
:1003F0004900FFF77FFF5BE07B68062B04D14FF0DD
:100400004100FFF777FF53E07B68072B04D14FF0E3
:100410001F00FFF76FFF4BE07B68082B04D14FF004
:100420000100FFF767FF43E07B68092B04D14FF021
:100430001900FFF75FFF3BE07B680A2B04D14FF008
:100440001100FFF757FF33E07B680B2B04D14FF00F
:10045000C100FFF74FFF2BE07B680C2B04D14FF05E
:100460006300FFF747FF23E07B680D2B04D14FF0BB
:100470008500FFF73FFF1BE07B680E2B04D14FF098
:100480006100FFF737FF13E07B680F2B04D14FF0BB
:100490007100FFF72FFF0BE07B68102B04D14FF0AA
:1004A000FE00FFF727FF03E04FF0FF00FFF722FFFA
:1004B00007F10807BD4680BD054B1C7844F00104D8
:1004C0001C70044B1A78D2B2034B1A70FFF7F8FD78
:1004D000E8460040FA460040BC76004080B582B055
:1004E00000AF4EF60C53CEF2000340F20042C0F2D1
:1004F000FA521A604EF61453CEF200034EF614521E
:10050000CEF20002126842F400721A604FF000034B
:100510007B6014E07A687B684FEA830140F2000355
:10052000C0F200030B441B68194648F20003C1F6F1
:10053000FF7343F822107B6803F101037B607B6843
:100540002F2BE7D947F2BC63C4F200031B78DAB261
:1005500048F21913C1F6FF731A704EF60853CEF223
:10056000000348F20002C1F6FF721A6000F000FAC0
:1005700007F10807BD4680BD80B582B000AF786046
:100580000BE048F21013C1F6FF731B68184600F029
:10059000BFFA7B68A3F500437B607B68B3F5004F2F
:1005A000EFD848F20813C1F6FF731B687A6802FBA4
:1005B00003F3184600F0ACFA07F10807BD4680BD0A
:1005C00080B485B000AF0346FB7145F25013C4F20E
:1005D00000031B78DBB223F00803FB7345F25013D2
:1005E000C4F20003FA794FEAC202D2B202F0080262
:1005F000F97B42EA0102D2B21A7007F11407BD4634
:1006000080BC704780B485B000AF0346FB7145F2F3
:100610005013C4F200031B78DBB223F00403FB7316
:1006200045F25013C4F20003FA794FEA8202D2B2C3
:1006300002F00402F97B42EA0102D2B21A7007F119
:100640001407BD4680BC704780B485B000AF034638
:10065000FB7145F25013C4F200031B78DBB223F0A8
:100660000203FB7345F25013C4F20003FA794FEA18
:100670004202D2B202F00202F97B42EA0102D2B295
:100680001A7007F11407BD4680BC704780B485B06E
:1006900000AF0346FB7145F2C013C4F200031B78A0
:1006A000DBB223F00403FB7345F2C013C4F2000372
:1006B000FA794FEA8202D2B202F00402F97B42EAEE
:1006C0000102D2B21A7007F11407BD4680BC704710
:1006D00080B485B000AF0346FB7145F2C013C4F28D
:1006E00000031B78DBB223F00203FB7345F2C01357
:1006F000C4F20003FA794FEA4202D2B202F00202D7
:10070000F97B42EA0102D2B21A7007F11407BD4622
:1007100080BC704780B485B000AF0346FB7145F2E2
:10072000C013C4F200031B78DBB223F00803FB7391
:1007300045F2C013C4F20003FA794FEAC202D2B202
:1007400002F00802F97B42EA0102D2B21A7007F104
:100750001407BD4680BC704780B485B000AF034627
:10076000FB7145F2C013C4F200031B78DBB223F027
:100770000103FB7345F2C013C4F20003FA7902F0DF
:100780000102F97B42EA0102D2B21A7007F11407A2
:10079000BD4680BC704700BF80B485B000AF034643
:1007A000FB7145F25013C4F200031B78DBB223F057
:1007B0000103FB7345F25013C4F20003FA7902F00F
:1007C0000102F97B42EA0102D2B21A7007F1140762
:1007D000BD4680BC704700BF80B582B000AF786076
:1007E000396078684FF000013A6800F069FA07F163
:1007F0000807BD4680BD00BF80B584B000AFF8607B
:10080000B9607A60F868B9687A6800F091F907F120
:100810001007BD4680BD00BF80B582B000AF44F276
:100820000033C4F200034FF002021A7044F20003D6
:10083000C4F200034FF008021A7044F20023C4F21D
:1008400000034FF003021A7044F2A163C4F20003E4
:1008500040F20812C4F600121278D2B21A7044F2B2
:100860002223C4F200034FF008021A8044F220232E
:10087000C4F2000341F251021A804FF00003FB71F1
:100880004FF019033B6019E0FB794FEA4303DAB2FA
:1008900044F22523C4F200031B78DBB203F001030A
:1008A00042EA0303DBB203F00303FB714FF4F07081
:1008B00000F02EF93B6803F1FF333B603B68002BEF
:1008C00002D0FB79032BDFD144F20403C4F200030E
:1008D0004FF480721A8044F20403C4F200034FF014
:1008E00007021A7044F20603C4F200034FF000023C
:1008F0001A7044F20803C4F200034FF048021A7061
:1009000044F20403C4F200034FF000021A7044F2F0
:100910000103C4F200034FF002021A7007F1080746
:10092000BD4680BD80B483B000AF40F2CF13C4F6A3
:1009300000131B78FB7145F66E03C4F20003FA79CD
:1009400002F007021A7045F66F03C4F20003FA7949
:100950004FEA1212D2B21A7045F67603C4F20003BF
:100960004FF044021A7007F10C07BD4680BC704777
:1009700080B582B000AF72B644F2E863C4F20003FF
:1009800044F2E862C4F200021278D2B242F00402E9
:10099000D2B21A704FF00003FB702FE0FA781346C2
:1009A0004FEA430313444FEA43031A4640F61863E1
:1009B000C0F2000313447B607B681A7859784FEAD1
:1009C000012141EA020299784FEA014141EA02021B
:1009D000DB784FEA036343EA02031A467B6819791E
:1009E0005B794FEA032343EA01039BB210461946A1
:1009F000FFF7F2FEFB7803F10103FB70FB78072B96
:100A0000CCD945F20303C4F2010345F20302C4F258
:100A100001021278D2B242F00202D2B21A7045F24A
:100A20001303C4F2010345F21302C4F20102127867
:100A3000D2B242F00202D2B21A7044F2A033C4F22F
:100A4000000344F2A032C4F200021278D2B242F0A3
:100A50004002D2B21A7044F2C233C4F2000344F22C
:100A6000C232C4F200021278D2B242F01002D2B204
:100A70001A7045F2C210C4F200004FF090414FF0DE
:100A80000802FFF7B9FE45F25210C4F2000040F22E
:100A90000801C4F600014FF00802FFF7ADFE44F272
:100AA0002233C4F2000344F22232C4F2000212786C
:100AB000D2B242F00802D2B21A7044F60003C4F275
:100AC00000034FF001021A70FFF7A6FE44F6000380
:100AD000C4F200036FF07E021A7040F20403C4F205
:100AE00008034FF001021A70FFF71CFF44F2B03008
:100AF000C4F2000044F2A031C4F200014FF00E0233
:100B0000FFF77AFE07F10807BD4680BD0000000030
:100B10000230800803D000BF01380046FCD1704786
:100B2000EFF3108072B6704780F31088704700BFF3
:100B3000032A2DE9F0070BD83AB1002311F803C0BE
:100B400000F803C001339342F8D1BDE8F0077047C5
:100B500082180C46034603E014F8011C03F8011C3C
:100B600003F003061946A44601330134002EF3D1E5
:100B70001CF00304634608BFC1EB020C68D0654259
:100B8000C4F1040A0CEB050733464FEACA0A5CF8C5
:100B900005604FEAC408551A08E057F8044F264686
:100BA00004FA0AF449EA0404CC5004335C18032D17
:100BB00026FA08F9A5F104050CEB0306EDDC002389
:100BC00002E0F15CE154013319199142F9D3BCE719
:100BD00053F8404C41F8404C53F83C4C41F83C4CE5
:100BE00053F8384C41F8384C53F8344C41F8344CF5
:100BF00053F8304C41F8304C53F82C4C41F82C4C05
:100C000053F8284C41F8284C53F8244C41F8244C14
:100C100053F8204C41F8204C53F81C4C41F81C4C24
:100C200053F8184C41F8184C53F8144C41F8144C34
:100C300053F8104C41F8104C53F80C4C41F80C4C44
:100C400053F8084C41F8084C53F8044C41F8044C54
:100C50001C460D4640334031BCF13F0FACF1400C17
:100C6000B6DC21462B46541B0FE051F8105C43F8CC
:100C7000105C51F80C5C43F80C5C51F8085C43F8CC
:100C8000085C51F8045C43F8045C0F2C0D469C464C
:100C900001F1100103F11003A4F11004E5DCCCEB29
:100CA0000201002303E0EC584CF8034004335E19C2
:100CB000032903EB0C04A1F10401F4DC7FE700BF7E
:100CC000032AC9B230B407D822B10023C15401337A
:100CD0009342FBD130BC704700EB020C034601E0AD
:100CE00003F8011C03F003041A460133002CF7D16A
:100CF0004FF00133C2EB0C0403FB01F31FE042F899
:100D0000403C42F83C3C42F8383C42F8343C42F823
:100D1000303C42F82C3C42F8283C42F8243C42F853
:100D2000203C42F81C3C42F8183C42F8143C42F883
:100D3000103C42F80C3C42F8083C42F8043C154692
:100D400040323F2CA4F14004D9DC2A46C5EB0C0408
:100D500007E042F8103C42F80C3C42F8083C42F8EC
:100D6000043C154610320F2CA4F11004F1DC2A4685
:100D7000C5EB0C0501E042F8043C14460432032D97
:100D8000A5F10405F7DC01E004F8011B6445FBD381
:100D9000A0E700BF08B500F017F8074800B10068E9
:100DA000064901B109680022FFF7D0F9044B0BB1E5
:100DB000AFF30080FEE700BF00000000000000006D
:100DC00000000000FEE7000070B540F6546640F6F3
:100DD0005465C0F20006C0F20005761BB61006D0BE
:100DE000002455F8243001349847A642F9D840F63B
:100DF000546540F65C66C0F20005C0F20006761B42
:100E000000F022F8B61006D0002455F82430013442
:080E10009847A642F9D870BD15
:100E1800005100405000605100401000F051004067
:100E280010000000014000100014014000080040BC
:100E38000140000A004C014000020050014020001F
:100E4800F8B500BFF8BC08BC9E46704731010000E9
:100E5800DD040000F8B500BFF8BC08BC9E4670472A
:100E68001D01000000000000800E00000080FF1F30
:080E7800180100000800000051
:100E80000000000000000000000000000000000062
:100E90000000000000000000000000000000000052
:100EA0000000000000000000000000000000000042
:100EB0000000000000000000000000000000000032
:100EC0000000000000000000000000000000000022
:100ED0000000000000000000000000000000000012
:100EE0000000000000000000000000000000000002
:100EF00000000000000000000000000000000000F2
:100F000000000000000000000000000000000000E1
:100F100000000000000000000000000000000000D1
:100F200000000000000000000000000000000000C1
:100F300000000000000000000000000000000000B1
:100F400000000000000000000000000000000000A1
:100F50000000000000000000000000000000000091
:100F60000000000000000000000000000000000081
:100F70000000000000000000000000000000000071
:100F80000000000000366E01C05D00001800000087
:080F90000000E02E000000004B
:04000003000004B93C
:00000001FF
