:1000000002126D008F828E83E0540100000070F8B0
:100010002278FFE4F6D8FD0212CBBB010689828A62
:1000200083E0225002E722BBFE02E32289828A8318
:10003000E49322BB010689828A83F0225002F722D0
:10004000BBFE01F322BC000BBE0029EF8DF084FF44
:10005000ADF022E4CCF875F008EF2FFFEE33FEECA4
:1000600033FCEE9DEC984005FCEE9DFE0FD5F0E9CB
:10007000E4CEFD22EDF8F5F0EE8420D21CFEADF0CA
:1000800075F008EF2FFFED33FD4007985006D5F0CF
:10009000F222C398FD0FD5F0EA22C5F0F8A3E028BC
:1000A000F0C5F0F8E582158270021583E038F02281
:1000B000BB010A89828A83E0F5F0A3E0225006871B
:1000C000F009E71922BBFE07E3F5F009E3192289DD
:1000D000828A83E493F5F074019322EF2BFFEE3ACA
:1000E000FEED39FDEC38FC22C3EF9BFFEE9AFEEDEE
:1000F00099FDEC98FC22E88FF0A4CC8BF0A42CFCAA
:10010000E98EF0A42CFC8AF0EDA42CFCEA8EF0A47D
:10011000CDA8F08BF0A42DCC3825F0FDE98FF0A40C
:100120002CCD35F0FCEB8EF0A4FEA9F0EB8FF0A403
:10013000CFC5F02ECD39FEE43CFCEAA42DCE35F03F
:10014000FDE43CFC2275F008758200EF2FFFEE33D2
:10015000FECD33CDCC33CCC58233C5829BED9AEC3A
:1001600099E58298400CF582EE9BFEED9AFDEC99A4
:10017000FC0FD5F0D6E4CEFBE4CDFAE4CCF9A882AE
:1001800022B800C1B90059BA002DEC8BF084CFCE53
:10019000CDFCE5F0CBF97818EF2FFFEE33FEED3311
:1001A000FDEC33FCEB33FB10D703994004EB99FBD8
:1001B0000FD8E5E4F9FA227818EF2FFFEE33FEEDC1
:1001C00033FDEC33FCC933C910D7059BE99A4007CE
:1001D000EC9BFCE99AF90FD8E0E4C9FAE4CCFB22E5
:1001E00075F010EF2FFFEE33FEED33FDCC33CCC8AE
:1001F00033C810D7079BEC9AE899400AED9BFDECB9
:100200009AFCE899F80FD5F0DAE4CDFBE4CCFAE4F7
:10021000C8F922EF4BFFEE4AFEED49FDEC48FC2207
:10022000E8600FECC313FCED13FDEE13FEEF13FFBC
:10023000D8F122E8600FEFC333FFEE33FEED33FD5C
:10024000EC33FCD8F122E0FCA3E0FDA3E0FEA3E048
:10025000FF22E0F8A3E0F9A3E0FAA3E0FB22ECF030
:10026000A3EDF0A3EEF0A3EFF022E0FBA3E0FAA3EE
:10027000E0F922EBF0A3EAF0A3E9F022E493FB74A7
:100280000193FA740293F922D083D082F8E4937038
:1002900012740193700DA3A393F8740193F58288EF
:1002A00083E4737402936860EFA3A3A380DFE50C7B
:1002B0002582F582E50B3583F583B50B0485820C29
:1002C0002210AF0685820CF50B2285820CF50BD22D
:1002D000AF22EC8EF0A4CCC5F0CCCDF8EFA4CEC507
:1002E000F02DFDE43CFCE8A42EC8C5F03DFDE43C47
:1002F000FCEFA4FFE5F028FEE43DFDE43CFC22E732
:1003000009F608DFFA8046E709F208DFFA803E883E
:10031000828C83E709F0A3DFFA8032E309F608DF75
:10032000FA806EE309F208DFFA806688828C83E344
:1003300009F0A3DFFA805A89828A83E0A3F608DFF6
:10034000FA804E89828A83E0A3F208DFFA80428035
:10035000D280FA80C680D4805580F28029801080B7
:10036000A680EA809A80A880DA80E280CA80298804
:10037000848C8589828A83E493A30586F0A305860D
:10038000DFF5DEF3800B89828A83E493A3F608DF2E
:10039000F9ECFAA9F0EDFB2288848C8589828A83A6
:1003A000E0A30586F0A30586DFF6DEF480E389820C
:1003B0008A83E493A3F208DFF980D688F0EF600126
:1003C0000E4E60CD88F0ED2402B4040050C3F582D7
:1003D000EB2402B4040050B9232345822390034F39
:1003E00073900090EFF0900091EDF0900092EBF0A0
:1003F000900097E4F0900098E4F0900091E0FF7E88
:1004000002EF8EF0A4FFAEF074512FF974003EFAA3
:100410007B019000A2120273900090E0FFEFC39462
:1004200001400D900090E0FFEF14FF900097EFF077
:10043000900090E0FFEF04FF900098EFF09000A292
:1004400012026A900090E0FF75F002EFA4F5828539
:10045000F083E92582F9EA3583FA1200B0FFAEF0A5
:10046000900045EEF0A3EFF0900090E0FFEF7036C3
:10047000900043E4F0A3E4F09000A212026A90001E
:1004800098E0FF75F002EFA4F58285F083E92582FC
:10049000F9EA3583FA1200B0FFAEF0900047EEF0B3
:1004A000A3EFF002054F900092E0FF7E00EF24FFE3
:1004B000FFEE34FFFE900090E0FD7C00EFB50539C3
:1004C000EEB504359000A212026A900097E0FF7525
:1004D000F002EFA4F58285F083E92582F9EA3583FD
:1004E000FA1200B0FFAEF0900043EEF0A3EFF090F0
:1004F0000047E4F0A3E4F080569000A212026A9054
:100500000097E0FF75F002EFA4F58285F083E925FE
:1005100082F9EA3583FA1200B0FFAEF0900043EEA4
:10052000F0A3EFF09000A212026A900098E0FF752D
:10053000F002EFA4F58285F083E92582F9EA35839C
:10054000FA1200B0FFAEF0900047EEF0A3EFF0908B
:100550000095E0FEA3E0FF900043E0FCA3E0FDD3A4
:10056000ED9FEC9E4021900043E0FEA3E0FF900051
:1005700095E0FCA3E0FDC3EF9DFFEE9CFE900043E1
:10058000EEF0A3EFF08008900043E4F0A3E4F090D5
:100590000045E0FEA3E0FF900095E0FCA3E0FDC372
:1005A000EF9DFFEE9CFE900045EEF0A3EFF0900073
:1005B00095E0FEA3E0FF900047E0FCA3E0FDD3ED53
:1005C0009FEC9E4021900047E0FEA3E0FF90009545
:1005D000E0FCA3E0FDC3EF9DFFEE9CFE900047EE24
:1005E000F0A3EFF08008900047E4F0A3E4F090005F
:1005F00043E0FEA3E0FFAB07AA06E4F9F89000474A
:10060000E0FEA3E0FFE4FCFD1200E890009A120275
:100610005E900045E0FEA3E0FFAB07AA06E4F9F810
:10062000900043E0FEA3E0FFE4FCFD1200DBA80421
:10063000A905AA06AB07900047E0FEA3E0FFE4FC93
:10064000FD1200DB90009E12025E90009A1202469C
:10065000780812023390009E12025212205AC004EF
:10066000C005C006C007900090E0FFE4FCFDFE78E6
:1006700008120233AB07AA06A905A804A804A90515
:10068000AA06AB07D007D006D005D0041200DB9035
:10069000009E12025E90009E120252900093E0FEB5
:1006A000A3E0FFEE3395E0FDFC1200F690009E12F1
:1006B000025E90009E120246EF2400FFEE347FFEA1
:1006C000ED3400FDEC3400FC78101202209000990B
:1006D000EFF0900099E0FF229000CFEFF09000CF74
:1006E000E0FFEF90274593FF9000D8EFF09000D8FF
:1006F000E0FFEF25E02452F582E43427F583E4930C
:10070000FE740193FF9000D9EEF0A3EFF09000CFBC
:10071000E0FFEF25E02482F582E43400F583E0FE7B
:10072000A3E0FF9000D6EEF0A3EFF09000CFE0FF43
:10073000EF25E02469F582E43400F583E0FEA3E0D0
:10074000FF9000D6E0FCA3E0FDC3ED9FEC9E40359A
:100750009000CFE0FFEF25E02469F582E43400F556
:1007600083E0FEA3E0FF9000D6E0FCA3E0FDC3ED34
:100770009FFFEC9EFE9000D4EEF0A3EFF09000D827
:100780007401F080329000CFE0FFEF25E02469F59E
:1007900082E43400F583E0FEA3E0FF9000D6E0FCA5
:1007A000A3E0FDC3EF9DFFEE9CFE9000D4EEF0A30E
:1007B000EFF09000D8E4F09000D8E0FFEF7059908F
:1007C00000D4E0FEA3E0FFD3EF9414EE9400404881
:1007D0009000CFE0FF745F2FF582E43400F583E0F2
:1007E000FFEFC39405401C9000CFE0FF1218639008
:1007F00000CFE0FF745F2FF582E43400F583E4F06E
:100800000209359000CFE0FF745F2FF582E43400D9
:10081000F583E004F00209359000D9E0FEA3E0FF83
:100820009000D4E0FCA3E0FDD3ED9FEC9E401F9030
:1008300000D4E0FEA3E0FFC3EF9414EE9400400365
:100840000209359000D8E0FFEF60030209359000FF
:10085000CFE0FFEF25E02469F582E43400F583E082
:10086000FEA3E0FFE4FCFD78081202339000D012F2
:10087000025E9000D01202529000CFE0FF744A2F27
:10088000F582E43400F583E0FFE4FCFDFE12021380
:100890009000D012025E9000D01202529000D6E07A
:1008A000FEA3E0FFE4FCFD1200DB9000D012025E2C
:1008B0009000D0120246C004C005C006C0079000D8
:1008C000CFE0FFEF25E02469F582E43400F583E012
:1008D000FEA3E0FFAB07AA06E4F9F8D007D006D0E4
:1008E00005D0041200E89000D012025E9000D012F1
:1008F000024678081202209000CFE0FDED25E024AA
:1009000069F582E43400F583EEF0A3EFF09000D0B7
:100910001202469000CFE0FE744A2EF582E43400C5
:10092000F583EFF09000CFE0FF745F2FF582E434A1
:1009300000F583E4F09000D9E0FEA3E0FF9000D43E
:10094000E0FCA3E0FDD3ED9FEC9E40279000D8E0B3
:10095000FFEF601F9000D4E0FEA3E0FF9000CFE027
:10096000FDED25E02451F582E43400F583EEF0A39B
:10097000EFF0229000CFE0FFEF25E02451F582E474
:100980003400F583E4F0A3E4F0229000E6EFF09069
:1009900000E6E0FFEF131313541FFF9000E8EFF0A1
:1009A0009000E6E0FFEF5407FF7401A807088002FB
:1009B000C333D8FCFF9000E9EFF09000E6E0FFEFD2
:1009C00090274593FF9000EAEFF09000EAE0FFEFF8
:1009D00025E0244CF582E43427F583E493FE74018A
:1009E00093FF9000EBEEF0A3EFF09000EAE0FFEF52
:1009F00025E02458F582E43427F583E493FE74015E
:100A000093FF9000EDEEF0A3EFF09000EAE0FFEF2F
:100A100090275E93FF9000EFEFF09000EAE0FFEF89
:100A2000C39401501A9000E77402F09000E7E0FFD1
:100A300074662FF582E43400F5837401F0800D9024
:100A400000EAE0FFEF14FF9000E7EFF09000E8E02D
:100A5000FF74492FF582E43400F583E0FF9000E94C
:100A6000E0FEEF5EFFEF60769000EDE0FEA3E0FFBA
:100A70009000EBE0FCA3E0FDC3ED9FFFEC9EFE9039
:100A800000E6E0FDED25E02451F582E43400F58335
:100A9000E0FCA3E0FDC3ED9FEC9E4003020B7590CC
:100AA00000E8E0FF74492FF582E43400F583C08349
:100AB000C082E0FF9000E9E0FEEEF4FEEF5EFFD0C2
:100AC00082D083EFF09000EFE0FF9000E7E0FE744B
:100AD000662EF582E43400F583EFF0020B7590008A
:100AE000EDE0FEA3E0FF9000EBE0FCA3E0FDED2FC6
:100AF000FFEC3EFE9000E6E0FDED25E02451F5829E
:100B0000E43400F583E0FCA3E0FDD3ED9FEC9E40D0
:100B10004E9000E7E0FF74662FF582E43400F58321
:100B2000E0FFEFD3940150239000E8E0FF74492FD9
:100B3000F582E43400F583C083C082E0FF9000E9D1
:100B4000E0FEEF4EFFD082D083EFF09000E7E0FFB1
:100B500074662FF582E43400F583E014F08016907B
:100B600000EFE0FF9000E7E0FE74662EF582E434CB
:100B700000F583EFF09000E8E0FF74492FF582E480
:100B80003400F583E0FF9000E9E0FEEF5EFFEF60E8
:100B9000047F0180027F00227B007A4679E81226DA
:100BA0006CEF4405FD7B007A4679E8122678750AD9
:100BB00000E50AC39407503AAF0AEF75F005A42484
:100BC000ACF582E43426F583AF82AE838E088F09BC
:100BD000AE08AF098F828E8312027CAE08AF098FF8
:100BE000828E83740393FC740493FD122542050ADC
:100BF00080BF7B087A0079001223C97B007A58797C
:100C0000707D007C031226437B007A58794C7D036B
:100C10007C021226437B017A50790312266CEF4442
:100C200002FD7B017A5079031226787B017A507994
:100C30001312266CEF4402FD7B017A5079131226C1
:100C4000789043A0E0FFEF4440FF9043A0EFF09086
:100C500043C2E0FFEF4410FF9043C2EFF07B087AFD
:100C6000037924C003C002C0017B007A517902904D
:100C70000110120273D001D002D0037F087E00124F
:100C800022A77B087A03792CC003C002C0017B0035
:100C90007A5179F2900110120273D001D002D00380
:100CA0007F087E001222A77B087A037934C003C034
:100CB00002C0017B007A517912900110120273D0A8
:100CC00001D002D0037F087E001222A77B087A039E
:100CD000793CC003C002C0017B007A5179229001A7
:100CE00010120273D001D002D0037F087E001222BE
:100CF000A79044F47401F0904322E0FFEF4408FF12
:100D0000904322EFF09046ECE0FFEFC394055006CD
:100D1000904689743AF090480074F1F0120E889071
:100D2000480074B1F0121F377B007A4379A0C003EA
:100D3000C002C0017B007A4379B0900110120273A7
:100D4000D001D002D0037F0E7E001222A79043B0C4
:100D5000E0FFEF54FDFFEFF022905120E0FFEF5451
:100D600080FFEFF0905122E0FFEF54F0FF9001ED93
:100D7000EFF09001EDE0FFEF440FFF905122EFF014
:100D8000905123E0FFEF54F0FF9001EDEFF0900160
:100D9000EDE0FF905123EFF0905124E0FFEF54F08D
:100DA000FF9001EDEFF09001EDE0FF905124EFF0A6
:100DB000905120E0FFEF54DFFFEFF0905120E0FF73
:100DC000EF4440FFEFF07F007E0012239C90512003
:100DD000E0FFEF4410FFEFF07F017E0012239C90B4
:100DE0005121E0FF9001EDEFF0905120E0FFEF5432
:100DF000EFFFEFF07F007E0012239C9001EDE0FFFB
:100E0000EF5408FF9001EDEFF0905120E0FFEF4428
:100E100010FFEFF07F017E0012239C905120E0FF35
:100E2000EF54EFFFEFF09001EDE0FFEF709890517D
:100E300020E0FFEF54BFFFEFF0905120E0FFEF54B0
:100E400080FFEFF0905122E0FFEF54F0FFEFF090C1
:100E50005123E0FFEF54F0FF9001EDEFF09001ED32
:100E6000E0FFEF440FFF905123EFF0905124E0FF9B
:100E7000EF54F0FF9001EDEFF09001EDE0FFEF4453
:100E80000FFF905124EFF0227B007A4079807D01A2
:100E90007C001226439040827418F0904300740244
:100EA000F09040007408F09042007403F07B0C7ADC
:100EB00001790812266C9046A1EFF07B007A427906
:100EC000227D087C001226437B007A4279207D51E6
:100ED0007C1212264390014DE4F07F197E007D00C4
:100EE0007C0090014912025E900149120246D3EF44
:100EF0009400EE9400404E90014DE0FFEF640360DB
:100F000044904225E0FFEF5401FF7E0090014DE048
:100F1000FEEE25E0FEEE4FFFEF5403FF90014DEF94
:100F2000F07FE07E017D007C0012220090014912DA
:100F300002467BFF7AFF79FF78FF1200DB900149C0
:100F400012025E80A3900149120246EF4E70057FA7
:100F5000031226227B007A4079047D007C01122650
:100F6000439040047407F0904006E4F09040087409
:100F700048F0904004E4F09040017402F09043A2E5
:100F8000E0FFEF4401FF9043A2EFF0229000DBEF7F
:100F9000F09000DCEDF09000DDEAF0A3EBF09000C3
:100FA000E074FFF09000E1E4F0A3E4F09000DBE0F7
:100FB000FF7E02EF8EF0A4FFAEF074512FF97400A3
:100FC0003EFA7B019000E31202739000DFE4F090A0
:100FD00000DCE0FF9000DFE0FEEEC39F4003021064
:100FE000839000E312026A9000DFE0FF75F002EFE9
:100FF000A4F58285F083E92582F9EA3583FA1200A7
:10100000B0FFAEF09000DDE0FCA3E0FDD3EF9DEE7D
:101010009C40679000E312026A9000DFE0FF75F0E9
:1010200002EFA4F58285F083E92582F9EA3583FA97
:101030001200B0FFAEF09000E1E0FCA3E0FDD3EFC2
:101040009DEE9C40359000DFE0FF9000E0EFF090D7
:1010500000E312026A9000DFE0FF75F002EFA4F5F2
:101060008285F083E92582F9EA3583FA1200B0FF20
:10107000AEF09000E1EEF0A3EFF09000DFE004F0BE
:10108000020FCF9000E0E0FF2290FFFF1202AE12AD
:10109000218C7F021224A01225F8850B83850C82F7
:1010A000EFF090649EE0FFEF4403FFEFF090649F49
:1010B000E0FFEF4403FFEFF0850B83850C82E0FF38
:1010C00012255B7B027A64792E7D007CB412264562
:1010D0007B027A64794E7DFF7CFF12264590648FF7
:1010E0007407F01225F8850B83850C82EFF090646D
:1010F0009DE0FFEF4403FFEFF090649CE0FFEF44BE
:1011000003FFEFF0850B83850C82E0FF12255B90D7
:10111000642D74FFF090644D74FFF090640D74FFC3
:10112000F090642C74FFF090645C74FFF090644C59
:1011300074FFF09044C87401F07C177D267F001284
:1011400019767D077F00121C7512268A7F07121DF3
:101150008E7F08121D8E7F09121D8E90647AE0FF2B
:10116000EF4404FFEFF012209E1223F67F001223BB
:101170003E7F041221177F001225269000011202E3
:10118000AE22900113EFF0900114EDF0900115EBF9
:10119000F0900116E0FF7E007C007D051200459076
:1011A0000118EFF0900116E0FF7E007C007D051233
:1011B0000045AF05900119EFF0900115E0FF900197
:1011C00018E0FEEEC39F400A900115E0FF90011861
:1011D000EFF0900113E0FF900114E0FD121DE79085
:1011E0000117E4F0900118E0FF900117E0FEEEC354
:1011F0009F500D7F0512223B900117E004F080E420
:10120000900115E0FF900118E0FEEEC39F505D9045
:101210000119E0FF12223B900115E0FF7E00EF2450
:10122000FFFFEE34FFFE900118E0FD7C00C3ED9F50
:10123000EC9E5038900117E4F0900118E0FF900107
:1012400015E0FEC3EE9FFF7E00EF24FFFFEE34FFAC
:10125000FE900117E0FD7C00C3ED9FEC9E500D7FDA
:101260000012223B900117E004F080CD227593001C
:1012700078007583467582E8E04401F0009046EC02
:10128000E0F99046FAE0FAB903225420B40012B80B
:10129000001AEA901FFFF07401901FFEF09046F6CE
:1012A000F0901FFEE06005901FFFE0FA9048007488
:1012B000C0F075810C90000078007920E4F0A3D88C
:1012C000FCD9FAEA9000BCF0020011750B1F750CF6
:1012D000FD120B980213120220DBE493A3F8E493AF
:1012E000A34003F68001F208DFF48029E493A3F819
:1012F0005407240CC8C333C4540F4420C88340048B
:10130000F456800146F6DFE4800B01020408102049
:101310004080901E95E47E019360BCA3FF543F3053
:10132000E509541FFEE493A360010ECF54C025E0ED
:1013300060A840B8E493A3FAE493A3F8E493A3C8A5
:10134000C582C8CAC583CAF0A3C8C582C8CAC58336
:10135000CADFE9DEE780BE900128EFF0900128E0C7
:10136000FFEF90276193FF90012CEFF0900128E0B0
:10137000FFEF90276493FF90012DEFF0900128E09C
:10138000FFEF25E0244CF582E43427F583E493FA5B
:10139000740193FB90012CE0FF90012DE0FD120FF2
:1013A0008C900129EFF0900129E0FFEF64FF605E6F
:1013B000900128E0FFEF25E02467F582E43427F56B
:1013C00083E493FE740193FF900128E0FDED25E096
:1013D0002452F582E43427F583E493FC740193FDF1
:1013E000900095ECF0A3EDF0900093EEF0A3EFF0F9
:1013F000900129E0FF90012CE0FD90012DE0FB120F
:1014000003E17E0090012AEEF0A3EFF0800A900144
:101410002A74FFF0A374FFF090012AE0FEA3E0FF1E
:101420002290FFFF1202AEEFF090647AE0FFEF54DB
:10143000FCFFEFF090641CE0FF7E00EF7F00FE8574
:101440000B83850C82E0FDED25E02482F582E434F7
:1014500000F583EEF0A3EFF0850B83850C82E0FFAF
:10146000EF25E02482F582E43400F583C083C08256
:10147000E0FEA3E0FF90640CE0FD7C00EE4CFEEF8C
:101480004DFFD082D083EEF0A3EFF0850B83850C67
:1014900082E0FFEF25E02482F582E43400F583E06A
:1014A000FEA3E0FFC374FF9FFF74FF9EFE850B83C6
:1014B000850C82E0FDED25E02482F582E43400F520
:1014C00083EEF0A3EFF0850B83850C82E0FF12140E
:1014D000E87F00122526905870E0FFEF4401FFEFEF
:1014E000F09000011202AE2290FFFF1202AEEFF068
:1014F00090FFFE1202AE850B83850C82A3A3E0FF52
:10150000EF90271D93FF850B83850C82EFF0850BF1
:1015100083850C82A3A3E0FFEF90272493FF850B24
:1015200083850C82A3EFF0850B83850C82A3A3E057
:10153000FF121D32850B83850C82E0FFEFB40F098B
:10154000850B83850C827407F0850B83850C82E004
:10155000FFEF25E0242BF582E43427F583E493FEA6
:10156000740193FF8F828E83C083C082E0FF850B5E
:1015700083850C82A3E0FEEEF4FEEF5EFFD082D006
:1015800083EFF0850B83850C82A3A3E0FFEF25E0BA
:10159000240FF582E43427F583E493FE740193FF6E
:1015A0008F828E837408F09000031202AE2290FFA7
:1015B000FF1202AEEFF090FFFE1202AE850B8385A4
:1015C0000C82A3A3E0FFEF90271D93FF850B83857B
:1015D0000C82EFF0850B83850C82A3A3E0FFEF90D4
:1015E000272493FF850B83850C82A3EFF0850B8363
:1015F000850C82A3A3E0FFEF25E0240FF582E434FD
:1016000027F583E493FE740193FF8F828E83740920
:10161000F0850B83850C82E0FFEFB40F09850B8307
:10162000850C827407F0850B83850C82E0FFEF2523
:10163000E0242BF582E43427F583E493FE740193D0
:10164000FF8F828E83C083C082E0FF850B83850C71
:1016500082A3E0FEEF4EFFD082D083EFF0850B83B4
:10166000850C82A3A3E0FF121D8E9000031202AE30
:10167000227F01121CD4EF60077F0112230D800529
:101680007F0012230D7F02121CD4EF60077F01122E
:1016900022DB80057F001222DB7F001213579001AE
:1016A00071EEF0A3EFF0900171E0FEA3E0FFEFB464
:1016B000FF0CEEB4FF08900171E4F0A3E4F0900198
:1016C00073E0FEA3E0FF900171E0FCA3E0FDED6F8D
:1016D0007002EC6E604F900171E0FEA3E0FF90019C
:1016E00073EEF0A3EFF0900171E0FEA3E0FFEF4E88
:1016F0006021900171E0FEA3E0FFEF7802CEC313FA
:10170000CE13D8F9FF900116EFF07B067D097F001C
:101710001211827D0A7F01121DE7900171E0FEA384
:10172000E0FF12247922C0E0C0F0C083C082C085EF
:10173000C084C086758600C093759300C0D075D0F4
:1017400000C000C001C002C003C004C005C006C084
:101750000790007AE0FF121421900077E0FFEF5429
:1017600080FF7E00EF4E6010900077E0FFEF54FEA8
:10177000FF900077EFF0803090007AE0FF1217CBF7
:1017800090007AEFF090007AE0FFEFC39407500AE0
:1017900090007AE0FF122014800E900077E0FFEFB7
:1017A00054FEFF900077EFF0D007D006D005D004AC
:1017B000D003D002D001D000D0D0D093D086D08436
:1017C000D085D082D083D0F0D0E03290FFFF1202DB
:1017D000AEEFF090FFFE1202AE850B83850C82A364
:1017E000A3E004F0850B83850C82A3A3E0FFEF64E4
:1017F00007605F850B83850C82A3A3E0FFEF1313C3
:1018000013541FFF850B83850C82EFF0850B8385B6
:101810000C82A3A3E0FFEF5407FF7401A807088020
:1018200002C333D8FCFF850B83850C82A3EFF085C0
:101830000B83850C82E0FF74792FF582E43400F588
:1018400083E0FF850B83850C82A3E0FEEF5EFFEF54
:101850006087850B83850C82A3A3E0FF90000312B1
:1018600002AE229001AEEFF09001AEE0FFEF9027C4
:101870004593FF9001AFEFF09001AEE0FFEF25E060
:101880002482F582E43400F583E0FEA3E0FF9001BA
:10189000AEE0FDED25E02469F582E43400F583EE49
:1018A000F0A3EFF09001AEE0FF744A2FF582E4342C
:1018B00000F583E4F09001AEE0FFEF25E02451F560
:1018C00082E43400F583E4F0A3E4F09001AFE0FF9C
:1018D000EFD39400401C9001AFE0FFEF90275E93A0
:1018E000FF9001AFE0FE74652EF582E43400F583CD
:1018F000EFF0227F287E007D007C00121C0F7F030A
:10190000121F847F057E007D007C00121C0F7F0368
:10191000121F847F0F7E007D007C00121C0F7F034E
:10192000121F847F017E007D007C00121C0F7F024D
:10193000121F847F057E007D007C00121C0F7F0635
:101940001222717F0E1222717F2C1222717F0812D7
:1019500022717F011222717F0C1222717F031222E9
:10196000717F057E007D007C00121C0F7BFF7A26B4
:1019700079CF121FCD2290015DEFF090015EECF067
:10198000A3EDF090015DE0FFEFD3941F5003D380EF
:1019900001C340057F0012260D90015DE0FFEF546A
:1019A0001FFF7E00EF25E0FFEE33FEEF2400FFEE89
:1019B0003444FEAA06A9077B01122636900160EE88
:1019C000F0A3EFF090015DE0FF7E02EF8EF0A4FF48
:1019D000AEF0EF2400FFEE3444FEAA06A9077B0117
:1019E00090015EE0FEA3E0FFAD07AC061226459035
:1019F0000160E0FEA3E0FF2290FFFF1202AEEFF0D5
:101A0000850B83850C82E0FFEF5403FF905842E082
:101A1000FEEE54FCFEEE4FFF905842EFF0850B8334
:101A2000850C82E0FFEFB4011E7B0C7A0179121263
:101A3000266C904634EFF07B0C7A01791612266CF6
:101A4000904635EFF0801C7B0C7A0179B112266C40
:101A5000904634EFF07B0C7A0179B912266C9046EF
:101A600035EFF09000011202AE2290FFFF1202AE9D
:101A7000905820E0FFEF540CFF7E00EEC313FEEF02
:101A800013FF850B83850C82EFF0905821E0FFEF68
:101A90005404FF7E00EF64044E7009850B83850CAF
:101AA00082E004F0850B83850C82E0FFE4FCFDFE00
:101AB000EF2420FFEE3401FEED340CFDEC3400FC8D
:101AC000A907AA06AB0512266C904608EFF0900015
:101AD000011202AE2290FFFF1202AE1225F8850B12
:101AE00083850C82EFF090649FE0FFEF4420FFEFCE
:101AF000F012257312258A1225A19043BBE0FFEF57
:101B00004410FFEFF09043ABE0FFEF4410FFEFF025
:101B1000905870E0FFEF4401FFEFF0850B83850CD8
:101B200082E0FF12255B9044C07401F090647AE07B
:101B3000FFEF4480FFEFF09000011202AE2290FF11
:101B4000FF1202AEEFF090FFFF1202AE850B83850D
:101B50000C82A3E0FFEF90274593FF850B83850C54
:101B600082EFF0850B83850C82A3E0FFEF90273B8B
:101B700093FF122526850B83850C82E0FFEF9027CB
:101B80004293FF90645DEFF0850B83850C82A3E0A8
:101B9000FF747B2FF582E43400F583E0FF12236DA0
:101BA0009000021202AE2290019CE4F090019CE0B1
:101BB000FFEFC39407505790019CE0FFEF131313FE
:101BC000541FFF90019DEFF090019CE0FFEF540740
:101BD000FF7401A807088002C333D8FCFF90019E60
:101BE000EFF090019DE0FF74792FF582E43400F569
:101BF00083E0FF90019EE0FEEF5EFFEF6008900142
:101C00009CE0FF1206D890019CE004F0809E229098
:101C1000FFFC1202AE12025E850B83850C8212025B
:101C200046D3EF9400EE9480402F9000BD12024600
:101C3000122200850B83850C82C083C0821202466B
:101C4000EF2400FFEE3480FEED34FFFDEC34FFFCAA
:101C5000D082D08312025E80BF9000B3120246850C
:101C60000B83850C821202521200F61222009000A1
:101C7000041202AE229001DCEFF09001DDEDF09055
:101C800001DDE0FFEFD394075003D38001C340058B
:101C90007F0012260D9001DCE0FFEFD3941F50036C
:101CA000D38001C340057F0012260D9001DDE0FFC7
:101CB000EF5407FF7E00EF75F020A4FFAEF0900117
:101CC000DCE0FEEE541FFE74802EF582E43444F511
:101CD00083EFF022900175EFF0900175E0FFEF9037
:101CE000276193FF900176EFF0900175E0FFEF9090
:101CF000276493FF900176E0FEEF2EFF900177EFCF
:101D0000F0900178E4F0900176E0FF12098AEF602C
:101D1000069001787401F0900176E004F09001776C
:101D2000E0FF900176E0FEEEC39F40DA900178E09C
:101D3000FF2290FFFF1202AEEFF0850B83850C822D
:101D4000E0FFEFC3940A503F850B83850C82E0FFD0
:101D5000EF25E0248EF582E43426F583E493FE74C7
:101D60000193FF8F828E83C083C082E0FF850B8347
:101D7000850C82E0FEEE9026A293FEEEF4FEEF5E6E
:101D8000FFD082D083EFF09000011202AE2290FFCC
:101D9000FF1202AEEFF0850B83850C82E0FFEFC3EC
:101DA000940A503C850B83850C82E0FFEF25E024EC
:101DB0008EF582E43426F583E493FE740193FF8F5D
:101DC000828E83C083C082E0FF850B83850C82E016
:101DD000FEEE9026A293FEEF4EFFD082D083EFF06E
:101DE0009000011202AE229001B2EFF09001B3ED2B
:101DF000F09001B2E0FFEF1202881E0A001E1701E8
:101E00001E24021E310300001E3D9001B3E0FFEFCF
:101E10002480FF122271229001B3E0FFEF24C0FF63
:101E2000122271229001B3E0FFEF2494FF1222717D
:101E3000229001B3E0FFEF24D4FF1222712290011F
:101E4000EEEFF0120D59905120E0FFEF4420FFEF2C
:101E5000F0905120E0FFEF54BFFFEFF0905120E0F1
:101E6000FFEF54F0FFEFF0905120C083C082E0FFFD
:101E70009001EEE0FEEE4410FEEF4EFFD082D083E4
:101E8000EFF07F017E0012239C905120E0FFEF5481
:101E9000EFFFEFF022410078004100797F47007B9F
:101EA000020203030303034300660000004101BB79
:101EB000004101BA004101F8004101C6004101C7DB
:101EC000FF4101FB004400B8016E36004400B3003E
:101ED000005DC04100B7184400BD2EE00000430182
:101EE000670000004102100000900144120273904C
:101EF00001477401F090014412026A12001AFF9027
:101F00000148EFF0900148E0FFEF602A900148E0BF
:101F1000FF12223B90014412026A900147E0FFE960
:101F20002FF9E43AFA12001AFF900148EFF09001FD
:101F300047E004F080CE227B0C7A0179CF12266C28
:101F40009001F4EFF09001F4E0FFEF5407FF905898
:101F50006EEFF09001F4E0FFEFC4540FFFEF540F69
:101F6000FF90586FEFF09051FD7420F0905870E49E
:101F7000F0905AD37420F0905B007403F090587680
:101F80007444F0229001EFEFF0905120E0FFEF5405
:101F90009FFFEFF0905120E0FFEF54F0FFEFF09043
:101FA0005120C083C082E0FF9001EFE0FEEE4410BC
:101FB000FEEF4EFFD082D083EFF07F017E00122330
:101FC0009C905120E0FFEF54EFFFEFF02290017959
:101FD000120273120D597F4012227190017CE4F0BD
:101FE00090017CE0FFEFC3944050209001791202F1
:101FF0006A90017CE0FFE92FF9E43AFA12001AFF37
:1020000012223B90017CE004F080D5120D597F80B4
:102010001222712290FFFF1202AEEFF0850B838532
:102020000C82E0FF121B3E90647AE0FFEF4401FF58
:10203000EFF0905870E0FFEF54FEFFEFF0850B8358
:10204000850C82E0FF1215AE90647AE0FFEF440247
:10205000FFEFF09000011202AE22C2D5E830E70F88
:10206000B2D5E4C39BFBE49AFAE499F9E498F8EC5E
:1020700030E717B2D5122090120181E4C39BFBE434
:102080009AFAE499F9E498F8800312018130D50DA9
:10209000E4C39FFFE49EFEE49DFDE49CFC227F00E0
:1020A0001219F8905842E0FFEF4420FFEFF09058EB
:1020B00042E0FFEF54FBFFEFF0905842E0FFEF44A7
:1020C00008FFEFF0905AD7E0FFEF54E7FFEFF090F2
:1020D0005AD7E0FFEF4410FFEFF0221225E312255C
:1020E000CE7BFF7A2679CF121FCD7D007F00121D97
:1020F000E77BFF7A267984121EE9D2AF9044F4740C
:10210000FDF01224E9121BA71221521225B8EF701C
:10211000FA12167180EF2290FFFF1202AEEFF090DC
:102120005820E0FFEF54F3FFEFF0905820C083C039
:1021300082E0FF850B83850C82E0FEEE540CFEEFFF
:102140004EFFD082D083EFF0121A6A900001120283
:10215000AE22900077E4F090007A74FFF090007A5D
:10216000E0FF1217CB90007AEFF090007AE0FFEFDB
:10217000C394075016900077E0FFEF4401FF9000F2
:1021800077EFF090007AE0FF1220142290FFFF1208
:1021900002AE850B83850C82E4F0850B83850C826F
:1021A000E0FFEFC394075016850B83850C82E0FF98
:1021B0001214E8850B83850C82E004F080DC90002B
:1021C000011202AE2290FFFF1202AE850B83850C36
:1021D00082E4F0850B83850C82E0FFEFC3940A5004
:1021E00016850B83850C82E0FF121D32850B8385DB
:0E21F0000C82E004F080DC9000011202AE22AE
:10220000EC4D4E700D78FCEF24E950032840FD2280
:1022100000007BF178DA0000EF28FF78FFEE38FE4F
:10222000ED38FDEC38FC50E7EF2BFFEE38FEED38D3
:10223000FDEC38FC40F222050203049001B4EFF0FB
:10224000120D599001B4E0FFEFC4540FFF9001B597
:10225000EFF09001B5E0FF121E3E9001B4E0FFEFF9
:10226000540FFF9001B5EFF09001B5E0FF121E3E54
:10227000229001B6EFF0120D599001B6E0FFEFC4C5
:10228000540FFF9001B7EFF09001B7E0FF121F84E9
:102290009001B6E0FFEF540FFF9001B7EFF090010F
:1022A000B7E0FF121F8422758600EF4E6027EF60B3
:1022B000010E759300900110E0F595A3E0F585A35C
:1022C000E0F5848B938A838982E0A30586F0A315C9
:1022D00086DFF6DEF4E4F593F595229001BEEFF08B
:1022E000905110E0FFEF547FFF9001BFEFF090019D
:1022F000BEE0FFEFC43333335480FFEF5480FF90D0
:1023000001BFE0FEEF4EFF905110EFF0229001BCB4
:10231000EFF0905110E0FFEF54BFFF9001BDEFF0E0
:102320009001BCE0FFEFC4333354C0FFEF5440FFD3
:102330009001BDE0FEEF4EFF905110EFF0229001B2
:10234000FAEFF0905821E0FFEF54FBFFEFF09058C8
:1023500021C083C082E0FF9001FAE0FEEE5404FE4B
:10236000EF4EFFD082D083EFF0121A6A2290FFFF67
:102370001202AEEFF0850B83850C82E0FF90642B98
:10238000EFF0850B83850C82E0FFEFC313FF9064B1
:0A2390003BEFF09000011202AE22B4
:10239C00EEFA9000B7E0F88FF0A4FFAEF0E88AF008
:1023AC00A42EFEE5F03400FDEF24C9FF78FFEE38D3
:1023BC00FEED38FDE438FC500302220022ACEAADFD
:1023CC00A08B938A838982E0F96017A3E0F5EAA3D6
:1023DC00E0F5A0A3E060F4FAA3E0F8A3E0F2DAF8E9
:1023EC00D9E98DA08CEAE4F593229058207414F06E
:1023FC00905821E4F0905821E0FFEF4404FFEFF0F7
:10240C00905821E0FFEF4402FFEFF07F007E0012B6
:10241C002422121A6A229001F9EFF0905820E0FF62
:10242C00EF54FDFFEFF0905820C083C082E0FF9086
:10243C0001F9E0FEEE5402FEEF4EFFD082D083EFA6
:10244C00F0229001F0EFF09001F0E0FFEFC4540F98
:10245C00FFEF90276993FF1226529001F0E0FFEFF7
:10246C00540FFFEF90276993FF122652229001B868
:10247C00EEF0A3EFF09001B8E0FEA3E0FFEEFF7EDC
:10248C000012244E9001B8E0FEA3E0FFEF54FFFFD2
:10249C0012244E229001E9EFF09001E9E0FFEFB435
:1024AC00010C90647AE0FFEF54EFFFEFF0229064A0
:1024BC007AE0FFEF4410FFEFF0229001E6EFF0908E
:1024CC000077E4F09001E6E0FF90007AEFF09000E6
:1024DC00777481F09001E6E0FF122014229001EB5A
:1024EC00E4F09001EBE0FFEFC3940750109001EB88
:1024FC00E0FF12250A9001EBE004F080E522900148
:10250C00EAEFF09001EAE0FF1224C61225B8EF7052
:10251C00FA9001EAE0FF1218632290FFFF1202AE5C
:10252C00EFF0850B83850C82E0FF905B80EFF090E1
:10253C0000011202AE22EC4D6011ED60010C8B9388
:10254C008A838982E4F0A3DDFCDCFA75930022EF28
:10255C0054016004D2AF8002C2AFEF5402FF90442A
:10256C00F4E054FD4FF0229043A2E0FFEF4401FF52
:10257C00EFF09043B2E0FFEF4401FFEFF022904305
:10258C00A7E0FFEF4404FFEFF09043B7E0FFEF4408
:10259C0004FFEFF0229043A8E0FFEF4401FFEFF0BF
:1025AC009043B8E0FFEF4401FFEFF022900077E09A
:1025BC00FFEF5401FF7E00EF4E60047F0180027F2D
:1025CC000022900078E0FFEF7009121089900078DB
:1025DC007401F0121AD5229001BAE0FFEF700912C3
:1025EC0018F39001BA7401F0122660229044F4E0C2
:1025FC00F84402F0E85402FF10AF012274014FFFBF
:10260C002290FFFF1202AEEFF09046EA7401F090B8
:10261C0000011202AE229001F3EFF09001F3E0FF03
:10262C009001F3EFF080FE228B938A838982E0FF86
:10263C00A3E0FE759300228B938A838982EDF0A32D
:10264C00ECF0759300229001ECEFF09001ECE0FFC0
:10265C0012223B227F0C1222719001BB7401F022DA
:10266C008B938A838982E0759300FF228B938A83F4
:10267C008982EDF0759300224353443031001221CE
:10268C00C522510C510C510C510C510C510C510CCC
:10269C005B035AD35A832040010204081001011035
:1026AC0000513000400051C000100100001000012A
:1026BC00140008000140000A00014C000200015007
:1026CC00000020000000000000000010101010108E
:1026DC0010101018181818181818181C1C1C1C1C72
:1026EC001C1C1C1E1E1E1E1E1E1E1E1F1F1F1F1FFF
:1026FC001F1F1F0000000000000000000000000071
:10270C00000000500550065000500150025003507C
:10271C0004000000000000002040010204081052D8
:10272C0006520E5216521E5226522E5236527E2BE4
:10273C002930312926223F3F1F01020000000000F2
:10274C000054007C0042002A002D002100000012E1
:10275C0000090105050200010501011900303132A3
:0D276C003334353637383941424344454651
:00000001FF
