:03000000020100FA
:100100001201267D027C03740075F00AA4C8120156
:100110003312013D540FC828DCEFC0E0120145DD69
:10012000E412015080DD758920758840758DFD755C
:100130009850223098FDE599547FC29822C299F5D3
:10014000993099FD22740A12013D740D12013D226D
:10015000D0E0FFD0E0FED0E0A9E0D0E0A8E01201BE
:100160003312013DB42B04E8298005B42D02E8992F
:0F017000F590EEC0E0EFC0E0120145120145220C
:00000001FF
