:03000000020100FA
:1001000012012C12014B7D027C03740075F00AA4CD
:10011000C8120139120143540FC828DCEFC0E012A5
:10012000014BDDE412015612018280D775892075DA
:100130008840758DFD759850223098FDE599547F63
:10014000C29822C299F5993099FD22740A1201438E
:10015000740D12014322D0E0FFD0E0FED0E0A9E010
:10016000D0E0A8E0120139120143B42B04E8298041
:1001700005B42D02E899C0E0EEC0E0EFC0E0120146
:100180004B22D0E0FFD0E0FED0E0F59075F0648423
:100190002430120143E5F075F00A84243012014343
:1001A000E5F02430120143EEC0E0EFC0E012014B55
:0101B000222C
:00000001FF
